{
  "contractName": "Dex",
  "abi": [
    {
      "inputs": [
        {
          "internalType": "address[]",
          "name": "_tokenAddr",
          "type": "address[]"
        }
      ],
      "stateMutability": "nonpayable",
      "type": "constructor"
    },
    {
      "anonymous": false,
      "inputs": [
        {
          "indexed": false,
          "internalType": "address",
          "name": "tokenAddr",
          "type": "address"
        },
        {
          "indexed": false,
          "internalType": "address",
          "name": "account",
          "type": "address"
        },
        {
          "indexed": false,
          "internalType": "uint256",
          "name": "amount",
          "type": "uint256"
        },
        {
          "indexed": false,
          "internalType": "uint256",
          "name": "cost",
          "type": "uint256"
        }
      ],
      "name": "buy",
      "type": "event"
    },
    {
      "anonymous": false,
      "inputs": [
        {
          "indexed": false,
          "internalType": "address",
          "name": "tokenAddr",
          "type": "address"
        },
        {
          "indexed": false,
          "internalType": "address",
          "name": "account",
          "type": "address"
        },
        {
          "indexed": false,
          "internalType": "uint256",
          "name": "amount",
          "type": "uint256"
        },
        {
          "indexed": false,
          "internalType": "uint256",
          "name": "cost",
          "type": "uint256"
        }
      ],
      "name": "sell",
      "type": "event"
    },
    {
      "inputs": [
        {
          "internalType": "address",
          "name": "_tokenAddr",
          "type": "address"
        },
        {
          "internalType": "uint256",
          "name": "_cost",
          "type": "uint256"
        },
        {
          "internalType": "uint256",
          "name": "_amount",
          "type": "uint256"
        }
      ],
      "name": "buyToken",
      "outputs": [],
      "stateMutability": "payable",
      "type": "function"
    },
    {
      "inputs": [
        {
          "internalType": "address",
          "name": "_tokenAddr",
          "type": "address"
        },
        {
          "internalType": "uint256",
          "name": "_cost",
          "type": "uint256"
        },
        {
          "internalType": "uint256",
          "name": "_amount",
          "type": "uint256"
        }
      ],
      "name": "sellToken",
      "outputs": [],
      "stateMutability": "nonpayable",
      "type": "function"
    }
  ],
  "bytecode": "0x60806040523480156200001157600080fd5b5060405162000f7938038062000f7983398181016040528101906200003791906200019b565b60005b8151811015620000ce5760016000808484815181106200005f576200005e62000335565b5b602002602001015173ffffffffffffffffffffffffffffffffffffffff1673ffffffffffffffffffffffffffffffffffffffff16815260200190815260200160002060006101000a81548160ff0219169083151502179055508080620000c590620002b8565b9150506200003a565b5050620003d2565b6000620000ed620000e78462000215565b620001ec565b9050808382526020820190508285602086028201111562000113576200011262000398565b5b60005b858110156200014757816200012c888262000151565b84526020840193506020830192505060018101905062000116565b5050509392505050565b6000815190506200016281620003b8565b92915050565b600082601f83011262000180576200017f62000393565b5b815162000192848260208601620000d6565b91505092915050565b600060208284031215620001b457620001b3620003a2565b5b600082015167ffffffffffffffff811115620001d557620001d46200039d565b5b620001e38482850162000168565b91505092915050565b6000620001f86200020b565b905062000206828262000282565b919050565b6000604051905090565b600067ffffffffffffffff82111562000233576200023262000364565b5b602082029050602081019050919050565b6000620002518262000258565b9050919050565b600073ffffffffffffffffffffffffffffffffffffffff82169050919050565b6000819050919050565b6200028d82620003a7565b810181811067ffffffffffffffff82111715620002af57620002ae62000364565b5b80604052505050565b6000620002c58262000278565b91507fffffffffffffffffffffffffffffffffffffffffffffffffffffffffffffffff821415620002fb57620002fa62000306565b5b600182019050919050565b7f4e487b7100000000000000000000000000000000000000000000000000000000600052601160045260246000fd5b7f4e487b7100000000000000000000000000000000000000000000000000000000600052603260045260246000fd5b7f4e487b7100000000000000000000000000000000000000000000000000000000600052604160045260246000fd5b600080fd5b600080fd5b600080fd5b600080fd5b6000601f19601f8301169050919050565b620003c38162000244565b8114620003cf57600080fd5b50565b610b9780620003e26000396000f3fe6080604052600436106100295760003560e01c80633e11741f1461002e578063e671499b14610057575b600080fd5b34801561003a57600080fd5b5061005560048036038101906100509190610665565b610073565b005b610071600480360381019061006c9190610665565b61039a565b005b82600115156000808373ffffffffffffffffffffffffffffffffffffffff1673ffffffffffffffffffffffffffffffffffffffff16815260200190815260200160002060009054906101000a900460ff16151514610106576040517f08c379a00000000000000000000000000000000000000000000000000000000081526004016100fd9061093a565b60405180910390fd5b6000849050838173ffffffffffffffffffffffffffffffffffffffff166370a08231336040518263ffffffff1660e01b8152600401610145919061083a565b60206040518083038186803b15801561015d57600080fd5b505afa158015610171573d6000803e3d6000fd5b505050506040513d601f19601f8201168201806040525081019061019591906106e5565b10156101d6576040517f08c379a00000000000000000000000000000000000000000000000000000000081526004016101cd9061091a565b60405180910390fd5b82471015610219576040517f08c379a0000000000000000000000000000000000000000000000000000000008152600401610210906108fa565b60405180910390fd5b8073ffffffffffffffffffffffffffffffffffffffff166323b872dd3330876040518463ffffffff1660e01b815260040161025693929190610855565b602060405180830381600087803b15801561027057600080fd5b505af1158015610284573d6000803e3d6000fd5b505050506040513d601f19601f820116820180604052508101906102a891906106b8565b5060003373ffffffffffffffffffffffffffffffffffffffff16846040516102cf90610825565b60006040518083038185875af1925050503d806000811461030c576040519150601f19603f3d011682016040523d82523d6000602084013e610311565b606091505b5050905080610355576040517f08c379a000000000000000000000000000000000000000000000000000000000815260040161034c9061099a565b60405180910390fd5b7f31de7d15e9e6c3b6f319c842341b735c0f9d7a5d06944314495f952400bd74c08633868860405161038a949392919061088c565b60405180910390a1505050505050565b82600115156000808373ffffffffffffffffffffffffffffffffffffffff1673ffffffffffffffffffffffffffffffffffffffff16815260200190815260200160002060009054906101000a900460ff1615151461042d576040517f08c379a00000000000000000000000000000000000000000000000000000000081526004016104249061093a565b60405180910390fd5b6000849050833414610474576040517f08c379a000000000000000000000000000000000000000000000000000000000815260040161046b9061095a565b60405180910390fd5b828173ffffffffffffffffffffffffffffffffffffffff166370a08231306040518263ffffffff1660e01b81526004016104ae919061083a565b60206040518083038186803b1580156104c657600080fd5b505afa1580156104da573d6000803e3d6000fd5b505050506040513d601f19601f820116820180604052508101906104fe91906106e5565b101561053f576040517f08c379a00000000000000000000000000000000000000000000000000000000081526004016105369061097a565b60405180910390fd5b8073ffffffffffffffffffffffffffffffffffffffff1663a9059cbb33856040518363ffffffff1660e01b815260040161057a9291906108d1565b602060405180830381600087803b15801561059457600080fd5b505af11580156105a8573d6000803e3d6000fd5b505050506040513d601f19601f820116820180604052508101906105cc91906106b8565b507fa9d424e2b661a4cf6090e4849fd2d81c17106afa4b26188dcc493a69ea4c2b5e85338587604051610602949392919061088c565b60405180910390a15050505050565b60008135905061062081610b1c565b92915050565b60008151905061063581610b33565b92915050565b60008135905061064a81610b4a565b92915050565b60008151905061065f81610b4a565b92915050565b60008060006060848603121561067e5761067d610a1e565b5b600061068c86828701610611565b935050602061069d8682870161063b565b92505060406106ae8682870161063b565b9150509250925092565b6000602082840312156106ce576106cd610a1e565b5b60006106dc84828501610626565b91505092915050565b6000602082840312156106fb576106fa610a1e565b5b600061070984828501610650565b91505092915050565b61071b816109d6565b82525050565b600061072e6020836109c5565b915061073982610a23565b602082019050919050565b6000610751601f836109c5565b915061075c82610a4c565b602082019050919050565b60006107746020836109c5565b915061077f82610a75565b602082019050919050565b60006107976017836109c5565b91506107a282610a9e565b602082019050919050565b60006107ba6016836109c5565b91506107c582610ac7565b602082019050919050565b60006107dd6000836109ba565b91506107e882610af0565b600082019050919050565b6000610800601f836109c5565b915061080b82610af3565b602082019050919050565b61081f81610a14565b82525050565b6000610830826107d0565b9150819050919050565b600060208201905061084f6000830184610712565b92915050565b600060608201905061086a6000830186610712565b6108776020830185610712565b6108846040830184610816565b949350505050565b60006080820190506108a16000830187610712565b6108ae6020830186610712565b6108bb6040830185610816565b6108c86060830184610816565b95945050505050565b60006040820190506108e66000830185610712565b6108f36020830184610816565b9392505050565b6000602082019050818103600083015261091381610721565b9050919050565b6000602082019050818103600083015261093381610744565b9050919050565b6000602082019050818103600083015261095381610767565b9050919050565b600060208201905081810360008301526109738161078a565b9050919050565b60006020820190508181036000830152610993816107ad565b9050919050565b600060208201905081810360008301526109b3816107f3565b9050919050565b600081905092915050565b600082825260208201905092915050565b60006109e1826109f4565b9050919050565b60008115159050919050565b600073ffffffffffffffffffffffffffffffffffffffff82169050919050565b6000819050919050565b600080fd5b7f4465783a2043616e6e6f74206166666f7264207468697320746f6b656e203a28600082015250565b7f4465783a20496e73756666696369656e7420746f6b656e2062616c616e636500600082015250565b7f4465783a205468697320746f6b656e206973206e6f7420737570706f72746564600082015250565b7f4465783a20496e73756666696369656e742066756e6421000000000000000000600082015250565b7f4465783a20546f6b656e20736f6c64206f7574203a2800000000000000000000600082015250565b50565b7f4465783a20457468207472616e7366657220756e7375636365737366756c2100600082015250565b610b25816109d6565b8114610b3057600080fd5b50565b610b3c816109e8565b8114610b4757600080fd5b50565b610b5381610a14565b8114610b5e57600080fd5b5056fea264697066735822122057655ca196499e1847ba566a02c0fe125f00419f707e9b5af0bf0da68d20bbdc64736f6c63430008060033",
  "immutableReferences": {},
  "source": "// SPDX-License-Identifier: MIT\npragma solidity ^0.8.0;\nimport \"../node_modules/@openzeppelin/contracts/token/ERC20/IERC20.sol\";\n\ncontract Dex {\n  event buy(address tokenAddr, address account, uint256 amount, uint256 cost);\n  event sell(address tokenAddr, address account, uint256 amount, uint256 cost);\n\n  mapping(address => bool) private supportedTokenAddr;\n\n  modifier supportsToken(address _tokenAddr) {\n    require(supportedTokenAddr[_tokenAddr] == true, \"Dex: This token is not supported\");\n    _;\n  }\n\n  constructor(address[] memory _tokenAddr){\n    for(uint i = 0; i < _tokenAddr.length; i++){\n      supportedTokenAddr[_tokenAddr[i]] = true;\n    }\n  }\n\n  function buyToken(address _tokenAddr, uint256 _cost, uint256 _amount) external payable supportsToken(_tokenAddr){\n    IERC20 token = IERC20(_tokenAddr);\n    require(msg.value == _cost, \"Dex: Insufficient fund!\");\n    require(token.balanceOf(address(this)) >= _amount, \"Dex: Token sold out :(\");\n    token.transfer(msg.sender, _amount);\n    emit buy(_tokenAddr, msg.sender, _amount, _cost);\n  }\n\n  function sellToken(address _tokenAddr, uint256 _cost, uint256 _amount) external supportsToken(_tokenAddr){\n    IERC20 token = IERC20(_tokenAddr);\n    require(token.balanceOf(msg.sender) >= _cost, \"Dex: Insufficient token balance\");\n    require(address(this).balance >= _amount, \"Dex: Cannot afford this token :(\");\n    token.transferFrom(msg.sender, address(this), _cost);\n    (bool success, ) = payable(msg.sender).call{value: _amount}(\"\");\n    require(success, \"Dex: Eth transfer unsuccessful!\");\n    emit sell(_tokenAddr, msg.sender, _amount, _cost);\n  }\n}",
  "sourcePath": "/Users/riomain/code/blockchain/uniswap-clone/contracts/dex.sol",
  "compiler": {
    "name": "solc",
    "version": "0.8.6+commit.11564f7e.Emscripten.clang"
  },
  "schemaVersion": "3.4.1",
  "updatedAt": "2021-06-28T23:16:02.222Z",
  "devdoc": {
    "kind": "dev",
    "methods": {},
    "version": 1
  },
  "userdoc": {
    "kind": "user",
    "methods": {},
    "version": 1
  }
}