{
  "contractName": "Dex",
  "abi": [
    {
      "inputs": [
        {
          "internalType": "address[]",
          "name": "_tokenAddr",
          "type": "address[]"
        }
      ],
      "stateMutability": "nonpayable",
      "type": "constructor"
    },
    {
      "anonymous": false,
      "inputs": [
        {
          "indexed": true,
          "internalType": "address",
          "name": "previousOwner",
          "type": "address"
        },
        {
          "indexed": true,
          "internalType": "address",
          "name": "newOwner",
          "type": "address"
        }
      ],
      "name": "OwnershipTransferred",
      "type": "event"
    },
    {
      "anonymous": false,
      "inputs": [
        {
          "indexed": false,
          "internalType": "address",
          "name": "tokenAddr",
          "type": "address"
        },
        {
          "indexed": false,
          "internalType": "address",
          "name": "account",
          "type": "address"
        },
        {
          "indexed": false,
          "internalType": "uint256",
          "name": "amount",
          "type": "uint256"
        },
        {
          "indexed": false,
          "internalType": "uint256",
          "name": "cost",
          "type": "uint256"
        }
      ],
      "name": "buy",
      "type": "event"
    },
    {
      "anonymous": false,
      "inputs": [
        {
          "indexed": false,
          "internalType": "address",
          "name": "tokenAddr",
          "type": "address"
        },
        {
          "indexed": false,
          "internalType": "address",
          "name": "account",
          "type": "address"
        },
        {
          "indexed": false,
          "internalType": "uint256",
          "name": "amount",
          "type": "uint256"
        },
        {
          "indexed": false,
          "internalType": "uint256",
          "name": "cost",
          "type": "uint256"
        }
      ],
      "name": "sell",
      "type": "event"
    },
    {
      "inputs": [],
      "name": "owner",
      "outputs": [
        {
          "internalType": "address",
          "name": "",
          "type": "address"
        }
      ],
      "stateMutability": "view",
      "type": "function",
      "constant": true
    },
    {
      "inputs": [],
      "name": "renounceOwnership",
      "outputs": [],
      "stateMutability": "nonpayable",
      "type": "function"
    },
    {
      "inputs": [
        {
          "internalType": "address",
          "name": "newOwner",
          "type": "address"
        }
      ],
      "name": "transferOwnership",
      "outputs": [],
      "stateMutability": "nonpayable",
      "type": "function"
    },
    {
      "inputs": [
        {
          "internalType": "address",
          "name": "_tokenAddr",
          "type": "address"
        },
        {
          "internalType": "uint256",
          "name": "_cost",
          "type": "uint256"
        },
        {
          "internalType": "uint256",
          "name": "_amount",
          "type": "uint256"
        }
      ],
      "name": "buyToken",
      "outputs": [],
      "stateMutability": "payable",
      "type": "function",
      "payable": true
    },
    {
      "inputs": [
        {
          "internalType": "address",
          "name": "_tokenAddr",
          "type": "address"
        },
        {
          "internalType": "uint256",
          "name": "_cost",
          "type": "uint256"
        },
        {
          "internalType": "uint256",
          "name": "_amount",
          "type": "uint256"
        }
      ],
      "name": "sellToken",
      "outputs": [],
      "stateMutability": "nonpayable",
      "type": "function"
    }
  ],
  "bytecode": "0x60806040523480156200001157600080fd5b506040516200162238038062001622833981810160405281019062000037919062000277565b600062000049620001b660201b60201c565b9050806000806101000a81548173ffffffffffffffffffffffffffffffffffffffff021916908373ffffffffffffffffffffffffffffffffffffffff1602179055508073ffffffffffffffffffffffffffffffffffffffff16600073ffffffffffffffffffffffffffffffffffffffff167f8be0079c531659141344cd1fd0a4f28419497f9722a3daafe3b4186f6b6457e060405160405180910390a35060005b8151811015620001ae57600182828151811062000130577f4e487b7100000000000000000000000000000000000000000000000000000000600052603260045260246000fd5b60200260200101519080600181540180825580915050600190039060005260206000200160009091909190916101000a81548173ffffffffffffffffffffffffffffffffffffffff021916908373ffffffffffffffffffffffffffffffffffffffff1602179055508080620001a59062000388565b915050620000ea565b50506200045f565b600033905090565b6000620001d5620001cf84620002e5565b620002bc565b90508083825260208201905082856020860282011115620001f557600080fd5b60005b858110156200022957816200020e888262000233565b845260208401935060208301925050600181019050620001f8565b5050509392505050565b600081519050620002448162000445565b92915050565b600082601f8301126200025c57600080fd5b81516200026e848260208601620001be565b91505092915050565b6000602082840312156200028a57600080fd5b600082015167ffffffffffffffff811115620002a557600080fd5b620002b3848285016200024a565b91505092915050565b6000620002c8620002db565b9050620002d6828262000352565b919050565b6000604051905090565b600067ffffffffffffffff82111562000303576200030262000405565b5b602082029050602081019050919050565b6000620003218262000328565b9050919050565b600073ffffffffffffffffffffffffffffffffffffffff82169050919050565b6000819050919050565b6200035d8262000434565b810181811067ffffffffffffffff821117156200037f576200037e62000405565b5b80604052505050565b6000620003958262000348565b91507fffffffffffffffffffffffffffffffffffffffffffffffffffffffffffffffff821415620003cb57620003ca620003d6565b5b600182019050919050565b7f4e487b7100000000000000000000000000000000000000000000000000000000600052601160045260246000fd5b7f4e487b7100000000000000000000000000000000000000000000000000000000600052604160045260246000fd5b6000601f19601f8301169050919050565b620004508162000314565b81146200045c57600080fd5b50565b6111b3806200046f6000396000f3fe60806040526004361061004a5760003560e01c80633e11741f1461004f578063715018a6146100785780638da5cb5b1461008f578063e671499b146100ba578063f2fde38b146100d6575b600080fd5b34801561005b57600080fd5b5061007660048036038101906100719190610b1c565b6100ff565b005b34801561008457600080fd5b5061008d61049d565b005b34801561009b57600080fd5b506100a46105d7565b6040516100b19190610d2b565b60405180910390f35b6100d460048036038101906100cf9190610b1c565b610600565b005b3480156100e257600080fd5b506100fd60048036038101906100f89190610af3565b6108ee565b005b8260008060018054905090505b808210156101c4576001828154811061014e577f4e487b7100000000000000000000000000000000000000000000000000000000600052603260045260246000fd5b9060005260206000200160009054906101000a900473ffffffffffffffffffffffffffffffffffffffff1673ffffffffffffffffffffffffffffffffffffffff168373ffffffffffffffffffffffffffffffffffffffff1614156101b1576101c4565b81806101bc90610f4f565b92505061010c565b80821415610207576040517f08c379a00000000000000000000000000000000000000000000000000000000081526004016101fe90610e4b565b60405180910390fd5b6000869050858173ffffffffffffffffffffffffffffffffffffffff166370a08231336040518263ffffffff1660e01b81526004016102469190610d2b565b60206040518083038186803b15801561025e57600080fd5b505afa158015610272573d6000803e3d6000fd5b505050506040513d601f19601f820116820180604052508101906102969190610b94565b10156102d7576040517f08c379a00000000000000000000000000000000000000000000000000000000081526004016102ce90610e2b565b60405180910390fd5b8447101561031a576040517f08c379a000000000000000000000000000000000000000000000000000000000815260040161031190610e0b565b60405180910390fd5b8073ffffffffffffffffffffffffffffffffffffffff166323b872dd3330896040518463ffffffff1660e01b815260040161035793929190610d46565b602060405180830381600087803b15801561037157600080fd5b505af1158015610385573d6000803e3d6000fd5b505050506040513d601f19601f820116820180604052508101906103a99190610b6b565b5060003373ffffffffffffffffffffffffffffffffffffffff16866040516103d090610d16565b60006040518083038185875af1925050503d806000811461040d576040519150601f19603f3d011682016040523d82523d6000602084013e610412565b606091505b5050905080610456576040517f08c379a000000000000000000000000000000000000000000000000000000000815260040161044d90610ecb565b60405180910390fd5b7f31de7d15e9e6c3b6f319c842341b735c0f9d7a5d06944314495f952400bd74c08833888a60405161048b9493929190610d7d565b60405180910390a15050505050505050565b6104a5610a97565b73ffffffffffffffffffffffffffffffffffffffff166104c36105d7565b73ffffffffffffffffffffffffffffffffffffffff1614610519576040517f08c379a000000000000000000000000000000000000000000000000000000000815260040161051090610eab565b60405180910390fd5b600073ffffffffffffffffffffffffffffffffffffffff1660008054906101000a900473ffffffffffffffffffffffffffffffffffffffff1673ffffffffffffffffffffffffffffffffffffffff167f8be0079c531659141344cd1fd0a4f28419497f9722a3daafe3b4186f6b6457e060405160405180910390a360008060006101000a81548173ffffffffffffffffffffffffffffffffffffffff021916908373ffffffffffffffffffffffffffffffffffffffff160217905550565b60008060009054906101000a900473ffffffffffffffffffffffffffffffffffffffff16905090565b8260008060018054905090505b808210156106c5576001828154811061064f577f4e487b7100000000000000000000000000000000000000000000000000000000600052603260045260246000fd5b9060005260206000200160009054906101000a900473ffffffffffffffffffffffffffffffffffffffff1673ffffffffffffffffffffffffffffffffffffffff168373ffffffffffffffffffffffffffffffffffffffff1614156106b2576106c5565b81806106bd90610f4f565b92505061060d565b80821415610708576040517f08c379a00000000000000000000000000000000000000000000000000000000081526004016106ff90610e4b565b60405180910390fd5b600086905085341461074f576040517f08c379a000000000000000000000000000000000000000000000000000000000815260040161074690610e6b565b60405180910390fd5b848173ffffffffffffffffffffffffffffffffffffffff166370a08231306040518263ffffffff1660e01b81526004016107899190610d2b565b60206040518083038186803b1580156107a157600080fd5b505afa1580156107b5573d6000803e3d6000fd5b505050506040513d601f19601f820116820180604052508101906107d99190610b94565b101561081a576040517f08c379a000000000000000000000000000000000000000000000000000000000815260040161081190610e8b565b60405180910390fd5b8073ffffffffffffffffffffffffffffffffffffffff1663a9059cbb33876040518363ffffffff1660e01b8152600401610855929190610dc2565b602060405180830381600087803b15801561086f57600080fd5b505af1158015610883573d6000803e3d6000fd5b505050506040513d601f19601f820116820180604052508101906108a79190610b6b565b507fa9d424e2b661a4cf6090e4849fd2d81c17106afa4b26188dcc493a69ea4c2b5e873387896040516108dd9493929190610d7d565b60405180910390a150505050505050565b6108f6610a97565b73ffffffffffffffffffffffffffffffffffffffff166109146105d7565b73ffffffffffffffffffffffffffffffffffffffff161461096a576040517f08c379a000000000000000000000000000000000000000000000000000000000815260040161096190610eab565b60405180910390fd5b600073ffffffffffffffffffffffffffffffffffffffff168173ffffffffffffffffffffffffffffffffffffffff1614156109da576040517f08c379a00000000000000000000000000000000000000000000000000000000081526004016109d190610deb565b60405180910390fd5b8073ffffffffffffffffffffffffffffffffffffffff1660008054906101000a900473ffffffffffffffffffffffffffffffffffffffff1673ffffffffffffffffffffffffffffffffffffffff167f8be0079c531659141344cd1fd0a4f28419497f9722a3daafe3b4186f6b6457e060405160405180910390a3806000806101000a81548173ffffffffffffffffffffffffffffffffffffffff021916908373ffffffffffffffffffffffffffffffffffffffff16021790555050565b600033905090565b600081359050610aae81611138565b92915050565b600081519050610ac38161114f565b92915050565b600081359050610ad881611166565b92915050565b600081519050610aed81611166565b92915050565b600060208284031215610b0557600080fd5b6000610b1384828501610a9f565b91505092915050565b600080600060608486031215610b3157600080fd5b6000610b3f86828701610a9f565b9350506020610b5086828701610ac9565b9250506040610b6186828701610ac9565b9150509250925092565b600060208284031215610b7d57600080fd5b6000610b8b84828501610ab4565b91505092915050565b600060208284031215610ba657600080fd5b6000610bb484828501610ade565b91505092915050565b610bc681610f07565b82525050565b6000610bd9602683610ef6565b9150610be482610fc7565b604082019050919050565b6000610bfc602083610ef6565b9150610c0782611016565b602082019050919050565b6000610c1f601f83610ef6565b9150610c2a8261103f565b602082019050919050565b6000610c42602083610ef6565b9150610c4d82611068565b602082019050919050565b6000610c65601783610ef6565b9150610c7082611091565b602082019050919050565b6000610c88601683610ef6565b9150610c93826110ba565b602082019050919050565b6000610cab602083610ef6565b9150610cb6826110e3565b602082019050919050565b6000610cce600083610eeb565b9150610cd98261110c565b600082019050919050565b6000610cf1601f83610ef6565b9150610cfc8261110f565b602082019050919050565b610d1081610f45565b82525050565b6000610d2182610cc1565b9150819050919050565b6000602082019050610d406000830184610bbd565b92915050565b6000606082019050610d5b6000830186610bbd565b610d686020830185610bbd565b610d756040830184610d07565b949350505050565b6000608082019050610d926000830187610bbd565b610d9f6020830186610bbd565b610dac6040830185610d07565b610db96060830184610d07565b95945050505050565b6000604082019050610dd76000830185610bbd565b610de46020830184610d07565b9392505050565b60006020820190508181036000830152610e0481610bcc565b9050919050565b60006020820190508181036000830152610e2481610bef565b9050919050565b60006020820190508181036000830152610e4481610c12565b9050919050565b60006020820190508181036000830152610e6481610c35565b9050919050565b60006020820190508181036000830152610e8481610c58565b9050919050565b60006020820190508181036000830152610ea481610c7b565b9050919050565b60006020820190508181036000830152610ec481610c9e565b9050919050565b60006020820190508181036000830152610ee481610ce4565b9050919050565b600081905092915050565b600082825260208201905092915050565b6000610f1282610f25565b9050919050565b60008115159050919050565b600073ffffffffffffffffffffffffffffffffffffffff82169050919050565b6000819050919050565b6000610f5a82610f45565b91507fffffffffffffffffffffffffffffffffffffffffffffffffffffffffffffffff821415610f8d57610f8c610f98565b5b600182019050919050565b7f4e487b7100000000000000000000000000000000000000000000000000000000600052601160045260246000fd5b7f4f776e61626c653a206e6577206f776e657220697320746865207a65726f206160008201527f6464726573730000000000000000000000000000000000000000000000000000602082015250565b7f4465783a2043616e6e6f74206166666f7264207468697320746f6b656e203a28600082015250565b7f4465783a20496e73756666696369656e7420746f6b656e2062616c616e636500600082015250565b7f4465783a205468697320746f6b656e206973206e6f7420737570706f72746564600082015250565b7f4465783a20496e73756666696369656e742066756e6421000000000000000000600082015250565b7f4465783a20546f6b656e20736f6c64206f7574203a2800000000000000000000600082015250565b7f4f776e61626c653a2063616c6c6572206973206e6f7420746865206f776e6572600082015250565b50565b7f4465783a20457468207472616e7366657220756e7375636365737366756c2100600082015250565b61114181610f07565b811461114c57600080fd5b50565b61115881610f19565b811461116357600080fd5b50565b61116f81610f45565b811461117a57600080fd5b5056fea264697066735822122020c3577a99c6ac729225e5cbccc438dac0daba53bc586ba7862964678826a09064736f6c63430008040033",
  "immutableReferences": {},
  "source": "// SPDX-License-Identifier: MIT\npragma solidity ^0.8.0;\nimport \"../node_modules/@openzeppelin/contracts/access/Ownable.sol\";\nimport \"../node_modules/@openzeppelin/contracts/token/ERC20/IERC20.sol\";\n\ncontract Dex is Ownable {\n  event buy(address tokenAddr, address account, uint256 amount, uint256 cost);\n  event sell(address tokenAddr, address account, uint256 amount, uint256 cost);\n\n  address[] private supportedTokenAddr;\n\n  modifier supportsToken(address _tokenAddr) {\n    uint i = 0;\n    uint n = supportedTokenAddr.length;\n    for(; i < n; i++){\n      if(_tokenAddr == supportedTokenAddr[i]){\n        break;\n      }\n    }\n    require(i != n, \"Dex: This token is not supported\");\n    _;\n  }\n\n  constructor(address[] memory _tokenAddr){\n    for(uint i = 0; i < _tokenAddr.length; i++){\n      supportedTokenAddr.push(_tokenAddr[i]);\n    }\n  }\n\n  function buyToken(address _tokenAddr, uint256 _cost, uint256 _amount) external payable supportsToken(_tokenAddr){\n    IERC20 token = IERC20(_tokenAddr);\n    require(msg.value == _cost, \"Dex: Insufficient fund!\");\n    require(token.balanceOf(address(this)) >= _amount, \"Dex: Token sold out :(\");\n    token.transfer(msg.sender, _amount);\n    emit buy(_tokenAddr, msg.sender, _amount, _cost);\n  }\n\n  function sellToken(address _tokenAddr, uint256 _cost, uint256 _amount) external supportsToken(_tokenAddr){\n    IERC20 token = IERC20(_tokenAddr);\n    require(token.balanceOf(msg.sender) >= _cost, \"Dex: Insufficient token balance\");\n    require(address(this).balance >= _amount, \"Dex: Cannot afford this token :(\");\n    token.transferFrom(msg.sender, address(this), _cost);\n    (bool success, ) = payable(msg.sender).call{value: _amount}(\"\");\n    require(success, \"Dex: Eth transfer unsuccessful!\");\n    emit sell(_tokenAddr, msg.sender, _amount, _cost);\n  }\n\n}",
  "sourcePath": "/Users/riomain/code/blockchain/youtube/dex/contracts/dex.sol",
  "compiler": {
    "name": "solc",
    "version": "0.8.4+commit.c7e474f2.Emscripten.clang"
  },
  "schemaVersion": "3.3.4",
  "updatedAt": "2021-06-01T11:50:22.845Z",
  "networkType": "ethereum",
  "devdoc": {
    "kind": "dev",
    "methods": {
      "owner()": {
        "details": "Returns the address of the current owner."
      },
      "renounceOwnership()": {
        "details": "Leaves the contract without owner. It will not be possible to call `onlyOwner` functions anymore. Can only be called by the current owner. NOTE: Renouncing ownership will leave the contract without an owner, thereby removing any functionality that is only available to the owner."
      },
      "transferOwnership(address)": {
        "details": "Transfers ownership of the contract to a new account (`newOwner`). Can only be called by the current owner."
      }
    },
    "version": 1
  },
  "userdoc": {
    "kind": "user",
    "methods": {},
    "version": 1
  }
}